{
  "_format": "hh-sol-artifact-1",
  "contractName": "GasContract",
  "sourceName": "contracts/Gas.sol",
  "abi": [
    {
      "inputs": [
        {
          "internalType": "address[]",
          "name": "_admins",
          "type": "address[]"
        },
        {
          "internalType": "uint256",
          "name": "_totalSupply",
          "type": "uint256"
        }
      ],
      "stateMutability": "nonpayable",
      "type": "constructor"
    },
    {
      "anonymous": false,
      "inputs": [
        {
          "indexed": false,
          "internalType": "address",
          "name": "userAddress",
          "type": "address"
        },
        {
          "indexed": false,
          "internalType": "uint256",
          "name": "tier",
          "type": "uint256"
        }
      ],
      "name": "AddedToWhitelist",
      "type": "event"
    },
    {
      "anonymous": false,
      "inputs": [
        {
          "indexed": true,
          "internalType": "address",
          "name": "previousOwner",
          "type": "address"
        },
        {
          "indexed": true,
          "internalType": "address",
          "name": "newOwner",
          "type": "address"
        }
      ],
      "name": "OwnershipTransferred",
      "type": "event"
    },
    {
      "anonymous": false,
      "inputs": [
        {
          "indexed": false,
          "internalType": "address",
          "name": "admin",
          "type": "address"
        },
        {
          "indexed": false,
          "internalType": "uint256",
          "name": "ID",
          "type": "uint256"
        },
        {
          "indexed": false,
          "internalType": "uint256",
          "name": "amount",
          "type": "uint256"
        },
        {
          "indexed": false,
          "internalType": "string",
          "name": "recipient",
          "type": "string"
        }
      ],
      "name": "PaymentUpdated",
      "type": "event"
    },
    {
      "anonymous": false,
      "inputs": [
        {
          "indexed": false,
          "internalType": "address",
          "name": "recipient",
          "type": "address"
        },
        {
          "indexed": false,
          "internalType": "uint256",
          "name": "amount",
          "type": "uint256"
        }
      ],
      "name": "Transfer",
      "type": "event"
    },
    {
      "anonymous": false,
      "inputs": [
        {
          "indexed": true,
          "internalType": "address",
          "name": "",
          "type": "address"
        }
      ],
      "name": "WhiteListTransfer",
      "type": "event"
    },
    {
      "anonymous": false,
      "inputs": [
        {
          "indexed": true,
          "internalType": "address",
          "name": "",
          "type": "address"
        },
        {
          "indexed": true,
          "internalType": "uint256",
          "name": "",
          "type": "uint256"
        }
      ],
      "name": "supplyChanged",
      "type": "event"
    },
    {
      "inputs": [
        {
          "internalType": "address",
          "name": "_updateAddress",
          "type": "address"
        },
        {
          "internalType": "bool",
          "name": "_tradeMode",
          "type": "bool"
        }
      ],
      "name": "addHistory",
      "outputs": [
        {
          "internalType": "bool",
          "name": "status_",
          "type": "bool"
        },
        {
          "internalType": "bool",
          "name": "tradeMode_",
          "type": "bool"
        }
      ],
      "stateMutability": "nonpayable",
      "type": "function"
    },
    {
      "inputs": [
        {
          "internalType": "address",
          "name": "_userAddrs",
          "type": "address"
        },
        {
          "internalType": "uint256",
          "name": "_tier",
          "type": "uint256"
        }
      ],
      "name": "addToWhitelist",
      "outputs": [],
      "stateMutability": "nonpayable",
      "type": "function"
    },
    {
      "inputs": [
        {
          "internalType": "uint256",
          "name": "",
          "type": "uint256"
        }
      ],
      "name": "administrators",
      "outputs": [
        {
          "internalType": "address",
          "name": "",
          "type": "address"
        }
      ],
      "stateMutability": "view",
      "type": "function"
    },
    {
      "inputs": [
        {
          "internalType": "address",
          "name": "_user",
          "type": "address"
        }
      ],
      "name": "balanceOf",
      "outputs": [
        {
          "internalType": "uint256",
          "name": "balance_",
          "type": "uint256"
        }
      ],
      "stateMutability": "view",
      "type": "function"
    },
    {
      "inputs": [
        {
          "internalType": "address",
          "name": "",
          "type": "address"
        }
      ],
      "name": "balances",
      "outputs": [
        {
          "internalType": "uint256",
          "name": "",
          "type": "uint256"
        }
      ],
      "stateMutability": "view",
      "type": "function"
    },
    {
      "inputs": [],
      "name": "basicFlag",
      "outputs": [
        {
          "internalType": "uint256",
          "name": "",
          "type": "uint256"
        }
      ],
      "stateMutability": "view",
      "type": "function"
    },
    {
      "inputs": [
        {
          "internalType": "address",
          "name": "_user",
          "type": "address"
        }
      ],
      "name": "checkForAdmin",
      "outputs": [
        {
          "internalType": "bool",
          "name": "admin_",
          "type": "bool"
        }
      ],
      "stateMutability": "view",
      "type": "function"
    },
    {
      "inputs": [],
      "name": "contractOwner",
      "outputs": [
        {
          "internalType": "address",
          "name": "",
          "type": "address"
        }
      ],
      "stateMutability": "view",
      "type": "function"
    },
    {
      "inputs": [],
      "name": "dividendFlag",
      "outputs": [
        {
          "internalType": "uint256",
          "name": "",
          "type": "uint256"
        }
      ],
      "stateMutability": "view",
      "type": "function"
    },
    {
      "inputs": [],
      "name": "getPaymentHistory",
      "outputs": [
        {
          "components": [
            {
              "internalType": "uint256",
              "name": "lastUpdate",
              "type": "uint256"
            },
            {
              "internalType": "address",
              "name": "updatedBy",
              "type": "address"
            },
            {
              "internalType": "uint256",
              "name": "blockNumber",
              "type": "uint256"
            }
          ],
          "internalType": "struct GasContract.History[]",
          "name": "paymentHistory_",
          "type": "tuple[]"
        }
      ],
      "stateMutability": "payable",
      "type": "function"
    },
    {
      "inputs": [
        {
          "internalType": "address",
          "name": "_user",
          "type": "address"
        }
      ],
      "name": "getPayments",
      "outputs": [
        {
          "components": [
            {
              "internalType": "enum GasContract.PaymentType",
              "name": "paymentType",
              "type": "uint8"
            },
            {
              "internalType": "uint256",
              "name": "paymentID",
              "type": "uint256"
            },
            {
              "internalType": "bool",
              "name": "adminUpdated",
              "type": "bool"
            },
            {
              "internalType": "string",
              "name": "recipientName",
              "type": "string"
            },
            {
              "internalType": "address",
              "name": "recipient",
              "type": "address"
            },
            {
              "internalType": "address",
              "name": "admin",
              "type": "address"
            },
            {
              "internalType": "uint256",
              "name": "amount",
              "type": "uint256"
            }
          ],
          "internalType": "struct GasContract.Payment[]",
          "name": "payments_",
          "type": "tuple[]"
        }
      ],
      "stateMutability": "view",
      "type": "function"
    },
    {
      "inputs": [],
      "name": "getTradingMode",
      "outputs": [
        {
          "internalType": "bool",
          "name": "mode_",
          "type": "bool"
        }
      ],
      "stateMutability": "view",
      "type": "function"
    },
    {
      "inputs": [
        {
          "internalType": "address",
          "name": "",
          "type": "address"
        }
      ],
      "name": "isOddWhitelistUser",
      "outputs": [
        {
          "internalType": "uint256",
          "name": "",
          "type": "uint256"
        }
      ],
      "stateMutability": "view",
      "type": "function"
    },
    {
      "inputs": [],
      "name": "isReady",
      "outputs": [
        {
          "internalType": "bool",
          "name": "",
          "type": "bool"
        }
      ],
      "stateMutability": "view",
      "type": "function"
    },
    {
      "inputs": [],
      "name": "owner",
      "outputs": [
        {
          "internalType": "address",
          "name": "",
          "type": "address"
        }
      ],
      "stateMutability": "view",
      "type": "function"
    },
    {
      "inputs": [],
      "name": "paymentCounter",
      "outputs": [
        {
          "internalType": "uint256",
          "name": "",
          "type": "uint256"
        }
      ],
      "stateMutability": "view",
      "type": "function"
    },
    {
      "inputs": [
        {
          "internalType": "uint256",
          "name": "",
          "type": "uint256"
        }
      ],
      "name": "paymentHistory",
      "outputs": [
        {
          "internalType": "uint256",
          "name": "lastUpdate",
          "type": "uint256"
        },
        {
          "internalType": "address",
          "name": "updatedBy",
          "type": "address"
        },
        {
          "internalType": "uint256",
          "name": "blockNumber",
          "type": "uint256"
        }
      ],
      "stateMutability": "view",
      "type": "function"
    },
    {
      "inputs": [
        {
          "internalType": "address",
          "name": "",
          "type": "address"
        },
        {
          "internalType": "uint256",
          "name": "",
          "type": "uint256"
        }
      ],
      "name": "payments",
      "outputs": [
        {
          "internalType": "enum GasContract.PaymentType",
          "name": "paymentType",
          "type": "uint8"
        },
        {
          "internalType": "uint256",
          "name": "paymentID",
          "type": "uint256"
        },
        {
          "internalType": "bool",
          "name": "adminUpdated",
          "type": "bool"
        },
        {
          "internalType": "string",
          "name": "recipientName",
          "type": "string"
        },
        {
          "internalType": "address",
          "name": "recipient",
          "type": "address"
        },
        {
          "internalType": "address",
          "name": "admin",
          "type": "address"
        },
        {
          "internalType": "uint256",
          "name": "amount",
          "type": "uint256"
        }
      ],
      "stateMutability": "view",
      "type": "function"
    },
    {
      "inputs": [],
      "name": "renounceOwnership",
      "outputs": [],
      "stateMutability": "nonpayable",
      "type": "function"
    },
    {
      "inputs": [],
      "name": "totalSupply",
      "outputs": [
        {
          "internalType": "uint256",
          "name": "",
          "type": "uint256"
        }
      ],
      "stateMutability": "view",
      "type": "function"
    },
    {
      "inputs": [],
      "name": "tradeFlag",
      "outputs": [
        {
          "internalType": "uint256",
          "name": "",
          "type": "uint256"
        }
      ],
      "stateMutability": "view",
      "type": "function"
    },
    {
      "inputs": [],
      "name": "tradeMode",
      "outputs": [
        {
          "internalType": "uint256",
          "name": "",
          "type": "uint256"
        }
      ],
      "stateMutability": "view",
      "type": "function"
    },
    {
      "inputs": [],
      "name": "tradePercent",
      "outputs": [
        {
          "internalType": "uint256",
          "name": "",
          "type": "uint256"
        }
      ],
      "stateMutability": "view",
      "type": "function"
    },
    {
      "inputs": [
        {
          "internalType": "address",
          "name": "_recipient",
          "type": "address"
        },
        {
          "internalType": "uint256",
          "name": "_amount",
          "type": "uint256"
        },
        {
          "internalType": "string",
          "name": "_name",
          "type": "string"
        }
      ],
      "name": "transfer",
      "outputs": [
        {
          "internalType": "bool",
          "name": "status_",
          "type": "bool"
        }
      ],
      "stateMutability": "nonpayable",
      "type": "function"
    },
    {
      "inputs": [
        {
          "internalType": "address",
          "name": "newOwner",
          "type": "address"
        }
      ],
      "name": "transferOwnership",
      "outputs": [],
      "stateMutability": "nonpayable",
      "type": "function"
    },
    {
      "inputs": [
        {
          "internalType": "address",
          "name": "_user",
          "type": "address"
        },
        {
          "internalType": "uint256",
          "name": "_ID",
          "type": "uint256"
        },
        {
          "internalType": "uint256",
          "name": "_amount",
          "type": "uint256"
        },
        {
          "internalType": "enum GasContract.PaymentType",
          "name": "_type",
          "type": "uint8"
        }
      ],
      "name": "updatePayment",
      "outputs": [],
      "stateMutability": "nonpayable",
      "type": "function"
    },
    {
      "inputs": [
        {
          "internalType": "address",
          "name": "",
          "type": "address"
        }
      ],
      "name": "whiteListStruct",
      "outputs": [
        {
          "internalType": "uint256",
          "name": "valueA",
          "type": "uint256"
        },
        {
          "internalType": "uint256",
          "name": "bigValue",
          "type": "uint256"
        },
        {
          "internalType": "uint256",
          "name": "valueB",
          "type": "uint256"
        }
      ],
      "stateMutability": "view",
      "type": "function"
    },
    {
      "inputs": [
        {
          "internalType": "address",
          "name": "_recipient",
          "type": "address"
        },
        {
          "internalType": "uint256",
          "name": "_amount",
          "type": "uint256"
        },
        {
          "components": [
            {
              "internalType": "uint256",
              "name": "valueA",
              "type": "uint256"
            },
            {
              "internalType": "uint256",
              "name": "bigValue",
              "type": "uint256"
            },
            {
              "internalType": "uint256",
              "name": "valueB",
              "type": "uint256"
            }
          ],
          "internalType": "struct GasContract.ImportantStruct",
          "name": "_struct",
          "type": "tuple"
        }
      ],
      "name": "whiteTransfer",
      "outputs": [],
      "stateMutability": "nonpayable",
      "type": "function"
    },
    {
      "inputs": [
        {
          "internalType": "address",
          "name": "",
          "type": "address"
        }
      ],
      "name": "whitelist",
      "outputs": [
        {
          "internalType": "uint256",
          "name": "",
          "type": "uint256"
        }
      ],
      "stateMutability": "view",
      "type": "function"
    }
  ],
  "bytecode": "0x6080604052600180556000600255600160035560006004556000600555600c60075560006009556000601160006101000a81548160ff02191690831515021790555060016013553480156200005357600080fd5b50604051620056be380380620056be8339818101604052810190620000799190620007ad565b620000996200008d6200061160201b60201c565b6200061960201b60201c565b33600860006101000a81548173ffffffffffffffffffffffffffffffffffffffff021916908373ffffffffffffffffffffffffffffffffffffffff1602179055508060048190555060005b60058110156200060857600073ffffffffffffffffffffffffffffffffffffffff1683828151811062000140577f4e487b7100000000000000000000000000000000000000000000000000000000600052603260045260246000fd5b602002602001015173ffffffffffffffffffffffffffffffffffffffff1614620005f2578281815181106200019e577f4e487b7100000000000000000000000000000000000000000000000000000000600052603260045260246000fd5b6020026020010151600c8260058110620001e1577f4e487b7100000000000000000000000000000000000000000000000000000000600052603260045260246000fd5b0160006101000a81548173ffffffffffffffffffffffffffffffffffffffff021916908373ffffffffffffffffffffffffffffffffffffffff160217905550600860009054906101000a900473ffffffffffffffffffffffffffffffffffffffff1673ffffffffffffffffffffffffffffffffffffffff1683828151811062000293577f4e487b7100000000000000000000000000000000000000000000000000000000600052603260045260246000fd5b602002602001015173ffffffffffffffffffffffffffffffffffffffff161415620003265760045460066000600860009054906101000a900473ffffffffffffffffffffffffffffffffffffffff1673ffffffffffffffffffffffffffffffffffffffff1673ffffffffffffffffffffffffffffffffffffffff16815260200190815260200160002081905550620003ad565b60006006600085848151811062000366577f4e487b7100000000000000000000000000000000000000000000000000000000600052603260045260246000fd5b602002602001015173ffffffffffffffffffffffffffffffffffffffff1673ffffffffffffffffffffffffffffffffffffffff168152602001908152602001600020819055505b600860009054906101000a900473ffffffffffffffffffffffffffffffffffffffff1673ffffffffffffffffffffffffffffffffffffffff1683828151811062000420577f4e487b7100000000000000000000000000000000000000000000000000000000600052603260045260246000fd5b602002602001015173ffffffffffffffffffffffffffffffffffffffff161415620004d25760045483828151811062000482577f4e487b7100000000000000000000000000000000000000000000000000000000600052603260045260246000fd5b602002602001015173ffffffffffffffffffffffffffffffffffffffff167ffbd610cf0373947747ba15effd5e459c81db984f8723671458c0e8624428ab0460405160405180910390a3620005f1565b600860009054906101000a900473ffffffffffffffffffffffffffffffffffffffff1673ffffffffffffffffffffffffffffffffffffffff1683828151811062000545577f4e487b7100000000000000000000000000000000000000000000000000000000600052603260045260246000fd5b602002602001015173ffffffffffffffffffffffffffffffffffffffff1614620005f0576000838281518110620005a5577f4e487b7100000000000000000000000000000000000000000000000000000000600052603260045260246000fd5b602002602001015173ffffffffffffffffffffffffffffffffffffffff167ffbd610cf0373947747ba15effd5e459c81db984f8723671458c0e8624428ab0460405160405180910390a35b5b5b8080620005ff90620008a8565b915050620000e4565b50505062000988565b600033905090565b60008060009054906101000a900473ffffffffffffffffffffffffffffffffffffffff169050816000806101000a81548173ffffffffffffffffffffffffffffffffffffffff021916908373ffffffffffffffffffffffffffffffffffffffff1602179055508173ffffffffffffffffffffffffffffffffffffffff168173ffffffffffffffffffffffffffffffffffffffff167f8be0079c531659141344cd1fd0a4f28419497f9722a3daafe3b4186f6b6457e060405160405180910390a35050565b6000620006f4620006ee846200083b565b62000807565b905080838252602082019050828560208602820111156200071457600080fd5b60005b858110156200074857816200072d888262000752565b84526020840193506020830192505060018101905062000717565b5050509392505050565b600081519050620007638162000954565b92915050565b600082601f8301126200077b57600080fd5b81516200078d848260208601620006dd565b91505092915050565b600081519050620007a7816200096e565b92915050565b60008060408385031215620007c157600080fd5b600083015167ffffffffffffffff811115620007dc57600080fd5b620007ea8582860162000769565b9250506020620007fd8582860162000796565b9150509250929050565b6000604051905081810181811067ffffffffffffffff8211171562000831576200083062000925565b5b8060405250919050565b600067ffffffffffffffff82111562000859576200085862000925565b5b602082029050602081019050919050565b600062000877826200087e565b9050919050565b600073ffffffffffffffffffffffffffffffffffffffff82169050919050565b6000819050919050565b6000620008b5826200089e565b91507fffffffffffffffffffffffffffffffffffffffffffffffffffffffffffffffff821415620008eb57620008ea620008f6565b5b600182019050919050565b7f4e487b7100000000000000000000000000000000000000000000000000000000600052601160045260246000fd5b7f4e487b7100000000000000000000000000000000000000000000000000000000600052604160045260246000fd5b6200095f816200086a565b81146200096b57600080fd5b50565b62000979816200089e565b81146200098557600080fd5b50565b614d2680620009986000396000f3fe6080604052600436106101c25760003560e01c80638da5cb5b116100f7578063ab63385c11610095578063cbd5d73f11610064578063cbd5d73f146106a4578063ce606ee0146106cf578063d89d1510146106fa578063f2fde38b14610737576101c2565b8063ab63385c146105db578063b52d15e21461061e578063b651bb611461065b578063c43982cc14610679576101c2565b80639b19251a116100d15780639b19251a146104f7578063a094a03114610534578063a30da0691461055f578063a5e047b81461059c576101c2565b80638da5cb5b146104635780638efcf5c01461048e5780639a9f8383146104cc576101c2565b806356b8c7241161016457806370a082311161013e57806370a08231146103b9578063715018a6146103f6578063745b07c81461040d57806376840b6014610438576101c2565b806356b8c724146103125780635de458131461034f5780636fd47b441461038e576101c2565b806327df565a116101a057806327df565a1461025857806327e235e3146102815780632c01c922146102be5780634e86eb16146102e9576101c2565b806318160ddd146101c75780631d6a1711146101f2578063214405fc1461022f575b600080fd5b3480156101d357600080fd5b506101dc610760565b6040516101e991906148a7565b60405180910390f35b3480156101fe57600080fd5b5061021960048036038101906102149190613571565b610766565b60405161022691906145ab565b60405180910390f35b34801561023b57600080fd5b50610256600480360381019061025191906135d6565b610a68565b005b34801561026457600080fd5b5061027f600480360381019061027a919061367e565b6112de565b005b34801561028d57600080fd5b506102a860048036038101906102a39190613571565b6117f1565b6040516102b591906148a7565b60405180910390f35b3480156102ca57600080fd5b506102d3611809565b6040516102e091906148a7565b60405180910390f35b3480156102f557600080fd5b50610310600480360381019061030b91906136cd565b61180f565b005b34801561031e57600080fd5b5061033960048036038101906103349190613612565b612439565b60405161034691906145cd565b60405180910390f35b34801561035b57600080fd5b5061037660048036038101906103719190613571565b612a41565b604051610385939291906148f9565b60405180910390f35b34801561039a57600080fd5b506103a3612a6b565b6040516103b091906148a7565b60405180910390f35b3480156103c557600080fd5b506103e060048036038101906103db9190613571565b612a71565b6040516103ed91906148a7565b60405180910390f35b34801561040257600080fd5b5061040b612abf565b005b34801561041957600080fd5b50610422612ad3565b60405161042f91906148a7565b60405180910390f35b34801561044457600080fd5b5061044d612ad9565b60405161045a91906148a7565b60405180910390f35b34801561046f57600080fd5b50610478612adf565b60405161048591906144f9565b60405180910390f35b34801561049a57600080fd5b506104b560048036038101906104b0919061359a565b612b08565b6040516104c39291906145e8565b60405180910390f35b3480156104d857600080fd5b506104e1612d22565b6040516104ee91906145cd565b60405180910390f35b34801561050357600080fd5b5061051e60048036038101906105199190613571565b612d55565b60405161052b91906148a7565b60405180910390f35b34801561054057600080fd5b50610549612d6d565b60405161055691906145cd565b60405180910390f35b34801561056b57600080fd5b5061058660048036038101906105819190613571565b612d80565b60405161059391906148a7565b60405180910390f35b3480156105a857600080fd5b506105c360048036038101906105be9190613730565b612d98565b6040516105d2939291906148c2565b60405180910390f35b3480156105e757600080fd5b5061060260048036038101906105fd91906135d6565b612df2565b6040516106159796959493929190614611565b60405180910390f35b34801561062a57600080fd5b5061064560048036038101906106409190613571565b612f33565b60405161065291906145cd565b60405180910390f35b610663612ff7565b6040516106709190614589565b60405180910390f35b34801561068557600080fd5b5061068e6130c0565b60405161069b91906148a7565b60405180910390f35b3480156106b057600080fd5b506106b96130c6565b6040516106c691906148a7565b60405180910390f35b3480156106db57600080fd5b506106e46130cc565b6040516106f191906144f9565b60405180910390f35b34801561070657600080fd5b50610721600480360381019061071c9190613730565b6130f2565b60405161072e91906144f9565b60405180910390f35b34801561074357600080fd5b5061075e60048036038101906107599190613571565b613128565b005b60045481565b6060600073ffffffffffffffffffffffffffffffffffffffff168273ffffffffffffffffffffffffffffffffffffffff1614156107d8576040517f08c379a00000000000000000000000000000000000000000000000000000000081526004016107cf90614887565b60405180910390fd5b600a60008373ffffffffffffffffffffffffffffffffffffffff1673ffffffffffffffffffffffffffffffffffffffff168152602001908152602001600020805480602002602001604051908101604052809291908181526020016000905b82821015610a5d57838290600052602060002090600702016040518060e00160405290816000820160009054906101000a900460ff1660048111156108a5577f4e487b7100000000000000000000000000000000000000000000000000000000600052602160045260246000fd5b60048111156108dd577f4e487b7100000000000000000000000000000000000000000000000000000000600052602160045260246000fd5b8152602001600182015481526020016002820160009054906101000a900460ff1615151515815260200160038201805461091690614b3f565b80601f016020809104026020016040519081016040528092919081815260200182805461094290614b3f565b801561098f5780601f106109645761010080835404028352916020019161098f565b820191906000526020600020905b81548152906001019060200180831161097257829003601f168201915b505050505081526020016004820160009054906101000a900473ffffffffffffffffffffffffffffffffffffffff1673ffffffffffffffffffffffffffffffffffffffff1673ffffffffffffffffffffffffffffffffffffffff1681526020016005820160009054906101000a900473ffffffffffffffffffffffffffffffffffffffff1673ffffffffffffffffffffffffffffffffffffffff1673ffffffffffffffffffffffffffffffffffffffff16815260200160068201548152505081526020019060010190610837565b505050509050919050565b6000339050610a7681612f33565b15610e8557610a8481612f33565b610ac3576040517f08c379a0000000000000000000000000000000000000000000000000000000008152600401610aba90614827565b60405180910390fd5b60ff8210610b06576040517f08c379a0000000000000000000000000000000000000000000000000000000008152600401610afd906146e7565b60405180910390fd5b81600b60008573ffffffffffffffffffffffffffffffffffffffff1673ffffffffffffffffffffffffffffffffffffffff168152602001908152602001600020819055506003821115610bf35781600b60008573ffffffffffffffffffffffffffffffffffffffff1673ffffffffffffffffffffffffffffffffffffffff1681526020019081526020016000206000828254610ba29190614a6b565b925050819055506003600b60008573ffffffffffffffffffffffffffffffffffffffff1673ffffffffffffffffffffffffffffffffffffffff16815260200190815260200160002081905550610d4f565b6001821415610c9c5781600b60008573ffffffffffffffffffffffffffffffffffffffff1673ffffffffffffffffffffffffffffffffffffffff1681526020019081526020016000206000828254610c4b9190614a6b565b925050819055506001600b60008573ffffffffffffffffffffffffffffffffffffffff1673ffffffffffffffffffffffffffffffffffffffff16815260200190815260200160002081905550610d4e565b600082118015610cac5750600382105b15610d4d5781600b60008573ffffffffffffffffffffffffffffffffffffffff1673ffffffffffffffffffffffffffffffffffffffff1681526020019081526020016000206000828254610d009190614a6b565b925050819055506002600b60008573ffffffffffffffffffffffffffffffffffffffff1673ffffffffffffffffffffffffffffffffffffffff168152602001908152602001600020819055505b5b5b600060135490506001811415610db057600060138190555080601460008673ffffffffffffffffffffffffffffffffffffffff1673ffffffffffffffffffffffffffffffffffffffff16815260200190815260200160002081905550610e46565b6000811415610e0a57600160138190555080601460008673ffffffffffffffffffffffffffffffffffffffff1673ffffffffffffffffffffffffffffffffffffffff16815260200190815260200160002081905550610e45565b6040517f08c379a0000000000000000000000000000000000000000000000000000000008152600401610e3c90614747565b60405180910390fd5b5b7f62c1e066774519db9fe35767c15fc33df2f016675b7cc0c330ed185f286a2d528484604051610e77929190614514565b60405180910390a1506112d9565b600860009054906101000a900473ffffffffffffffffffffffffffffffffffffffff1673ffffffffffffffffffffffffffffffffffffffff168173ffffffffffffffffffffffffffffffffffffffff16141561129d5760ff8210610f1e576040517f08c379a0000000000000000000000000000000000000000000000000000000008152600401610f15906146e7565b60405180910390fd5b81600b60008573ffffffffffffffffffffffffffffffffffffffff1673ffffffffffffffffffffffffffffffffffffffff16815260200190815260200160002081905550600382111561100b5781600b60008573ffffffffffffffffffffffffffffffffffffffff1673ffffffffffffffffffffffffffffffffffffffff1681526020019081526020016000206000828254610fba9190614a6b565b925050819055506003600b60008573ffffffffffffffffffffffffffffffffffffffff1673ffffffffffffffffffffffffffffffffffffffff16815260200190815260200160002081905550611167565b60018214156110b45781600b60008573ffffffffffffffffffffffffffffffffffffffff1673ffffffffffffffffffffffffffffffffffffffff16815260200190815260200160002060008282546110639190614a6b565b925050819055506001600b60008573ffffffffffffffffffffffffffffffffffffffff1673ffffffffffffffffffffffffffffffffffffffff16815260200190815260200160002081905550611166565b6000821180156110c45750600382105b156111655781600b60008573ffffffffffffffffffffffffffffffffffffffff1673ffffffffffffffffffffffffffffffffffffffff16815260200190815260200160002060008282546111189190614a6b565b925050819055506002600b60008573ffffffffffffffffffffffffffffffffffffffff1673ffffffffffffffffffffffffffffffffffffffff168152602001908152602001600020819055505b5b5b6000601354905060018114156111c857600060138190555080601460008673ffffffffffffffffffffffffffffffffffffffff1673ffffffffffffffffffffffffffffffffffffffff1681526020019081526020016000208190555061125e565b600081141561122257600160138190555080601460008673ffffffffffffffffffffffffffffffffffffffff1673ffffffffffffffffffffffffffffffffffffffff1681526020019081526020016000208190555061125d565b6040517f08c379a000000000000000000000000000000000000000000000000000000000815260040161125490614747565b60405180910390fd5b5b7f62c1e066774519db9fe35767c15fc33df2f016675b7cc0c330ed185f286a2d52848460405161128f929190614514565b60405180910390a1506112d8565b6040517f08c379a00000000000000000000000000000000000000000000000000000000081526004016112cf906147c7565b60405180910390fd5b5b505050565b3360003390508173ffffffffffffffffffffffffffffffffffffffff168173ffffffffffffffffffffffffffffffffffffffff1614611352576040517f08c379a000000000000000000000000000000000000000000000000000000000815260040161134990614847565b60405180910390fd5b6000600b60008373ffffffffffffffffffffffffffffffffffffffff1673ffffffffffffffffffffffffffffffffffffffff168152602001908152602001600020549050600081116113d9576040517f08c379a00000000000000000000000000000000000000000000000000000000081526004016113d090614727565b60405180910390fd5b6004811061141c576040517f08c379a0000000000000000000000000000000000000000000000000000000008152600401611413906146c7565b60405180910390fd5b600033905085600660008373ffffffffffffffffffffffffffffffffffffffff1673ffffffffffffffffffffffffffffffffffffffff1681526020019081526020016000205410156114a3576040517f08c379a000000000000000000000000000000000000000000000000000000000815260040161149a90614867565b60405180910390fd5b600386116114e6576040517f08c379a00000000000000000000000000000000000000000000000000000000081526004016114dd90614767565b60405180910390fd5b85600660008373ffffffffffffffffffffffffffffffffffffffff1673ffffffffffffffffffffffffffffffffffffffff16815260200190815260200160002060008282546115359190614a6b565b9250508190555085600660008973ffffffffffffffffffffffffffffffffffffffff1673ffffffffffffffffffffffffffffffffffffffff168152602001908152602001600020600082825461158b9190614a15565b92505081905550600b60008273ffffffffffffffffffffffffffffffffffffffff1673ffffffffffffffffffffffffffffffffffffffff16815260200190815260200160002054600660008373ffffffffffffffffffffffffffffffffffffffff1673ffffffffffffffffffffffffffffffffffffffff16815260200190815260200160002060008282546116209190614a15565b92505081905550600b60008273ffffffffffffffffffffffffffffffffffffffff1673ffffffffffffffffffffffffffffffffffffffff16815260200190815260200160002054600660008973ffffffffffffffffffffffffffffffffffffffff1673ffffffffffffffffffffffffffffffffffffffff16815260200190815260200160002060008282546116b59190614a6b565b92505081905550604051806060016040528060008152602001600081526020016000815250601560008373ffffffffffffffffffffffffffffffffffffffff1673ffffffffffffffffffffffffffffffffffffffff1681526020019081526020016000206000820151816000015560208201518160010155604082015181600201559050506000601560008373ffffffffffffffffffffffffffffffffffffffff1673ffffffffffffffffffffffffffffffffffffffff16815260200190815260200160002090508560000151816000018190555085602001518160010181905550856040015181600201819055508773ffffffffffffffffffffffffffffffffffffffff167f98eaee7299e9cbfa56cf530fd3a0c6dfa0ccddf4f837b8f025651ad9594647b360405160405180910390a25050505050505050565b60066020528060005260406000206000915090505481565b60025481565b600033905061181d81612f33565b15611e055761182b81612f33565b61186a576040517f08c379a000000000000000000000000000000000000000000000000000000000815260040161186190614827565b60405180910390fd5b600084116118ad576040517f08c379a00000000000000000000000000000000000000000000000000000000081526004016118a4906146a7565b60405180910390fd5b600083116118f0576040517f08c379a00000000000000000000000000000000000000000000000000000000081526004016118e790614787565b60405180910390fd5b600073ffffffffffffffffffffffffffffffffffffffff168573ffffffffffffffffffffffffffffffffffffffff161415611960576040517f08c379a0000000000000000000000000000000000000000000000000000000008152600401611957906147e7565b60405180910390fd5b600033905060005b600a60008873ffffffffffffffffffffffffffffffffffffffff1673ffffffffffffffffffffffffffffffffffffffff16815260200190815260200160002080549050811015611dfe5785600a60008973ffffffffffffffffffffffffffffffffffffffff1673ffffffffffffffffffffffffffffffffffffffff1681526020019081526020016000208281548110611a2a577f4e487b7100000000000000000000000000000000000000000000000000000000600052603260045260246000fd5b9060005260206000209060070201600101541415611deb576001600a60008973ffffffffffffffffffffffffffffffffffffffff1673ffffffffffffffffffffffffffffffffffffffff1681526020019081526020016000208281548110611abb577f4e487b7100000000000000000000000000000000000000000000000000000000600052603260045260246000fd5b906000526020600020906007020160020160006101000a81548160ff02191690831515021790555086600a60008973ffffffffffffffffffffffffffffffffffffffff1673ffffffffffffffffffffffffffffffffffffffff1681526020019081526020016000208281548110611b5b577f4e487b7100000000000000000000000000000000000000000000000000000000600052603260045260246000fd5b906000526020600020906007020160050160006101000a81548173ffffffffffffffffffffffffffffffffffffffff021916908373ffffffffffffffffffffffffffffffffffffffff16021790555083600a60008973ffffffffffffffffffffffffffffffffffffffff1673ffffffffffffffffffffffffffffffffffffffff1681526020019081526020016000208281548110611c22577f4e487b7100000000000000000000000000000000000000000000000000000000600052603260045260246000fd5b906000526020600020906007020160000160006101000a81548160ff02191690836004811115611c7b577f4e487b7100000000000000000000000000000000000000000000000000000000600052602160045260246000fd5b021790555084600a60008973ffffffffffffffffffffffffffffffffffffffff1673ffffffffffffffffffffffffffffffffffffffff1681526020019081526020016000208281548110611cf8577f4e487b7100000000000000000000000000000000000000000000000000000000600052603260045260246000fd5b9060005260206000209060070201600601819055506000611d17612d22565b9050611d238882612b08565b50507ff41efc8c6b66b2a03b14fd69b985ad19a0b9245f24936163018e9ad06d4c143e838888600a60008d73ffffffffffffffffffffffffffffffffffffffff1673ffffffffffffffffffffffffffffffffffffffff1681526020019081526020016000208681548110611dc0577f4e487b7100000000000000000000000000000000000000000000000000000000600052603260045260246000fd5b9060005260206000209060070201600301604051611de1949392919061453d565b60405180910390a1505b8080611df690614b71565b915050611968565b5050612432565b600860009054906101000a900473ffffffffffffffffffffffffffffffffffffffff1673ffffffffffffffffffffffffffffffffffffffff168173ffffffffffffffffffffffffffffffffffffffff1614156123f65760008411611e9e576040517f08c379a0000000000000000000000000000000000000000000000000000000008152600401611e95906146a7565b60405180910390fd5b60008311611ee1576040517f08c379a0000000000000000000000000000000000000000000000000000000008152600401611ed890614787565b60405180910390fd5b600073ffffffffffffffffffffffffffffffffffffffff168573ffffffffffffffffffffffffffffffffffffffff161415611f51576040517f08c379a0000000000000000000000000000000000000000000000000000000008152600401611f48906147e7565b60405180910390fd5b600033905060005b600a60008873ffffffffffffffffffffffffffffffffffffffff1673ffffffffffffffffffffffffffffffffffffffff168152602001908152602001600020805490508110156123ef5785600a60008973ffffffffffffffffffffffffffffffffffffffff1673ffffffffffffffffffffffffffffffffffffffff168152602001908152602001600020828154811061201b577f4e487b7100000000000000000000000000000000000000000000000000000000600052603260045260246000fd5b90600052602060002090600702016001015414156123dc576001600a60008973ffffffffffffffffffffffffffffffffffffffff1673ffffffffffffffffffffffffffffffffffffffff16815260200190815260200160002082815481106120ac577f4e487b7100000000000000000000000000000000000000000000000000000000600052603260045260246000fd5b906000526020600020906007020160020160006101000a81548160ff02191690831515021790555086600a60008973ffffffffffffffffffffffffffffffffffffffff1673ffffffffffffffffffffffffffffffffffffffff168152602001908152602001600020828154811061214c577f4e487b7100000000000000000000000000000000000000000000000000000000600052603260045260246000fd5b906000526020600020906007020160050160006101000a81548173ffffffffffffffffffffffffffffffffffffffff021916908373ffffffffffffffffffffffffffffffffffffffff16021790555083600a60008973ffffffffffffffffffffffffffffffffffffffff1673ffffffffffffffffffffffffffffffffffffffff1681526020019081526020016000208281548110612213577f4e487b7100000000000000000000000000000000000000000000000000000000600052603260045260246000fd5b906000526020600020906007020160000160006101000a81548160ff0219169083600481111561226c577f4e487b7100000000000000000000000000000000000000000000000000000000600052602160045260246000fd5b021790555084600a60008973ffffffffffffffffffffffffffffffffffffffff1673ffffffffffffffffffffffffffffffffffffffff16815260200190815260200160002082815481106122e9577f4e487b7100000000000000000000000000000000000000000000000000000000600052603260045260246000fd5b9060005260206000209060070201600601819055506000612308612d22565b90506123148882612b08565b50507ff41efc8c6b66b2a03b14fd69b985ad19a0b9245f24936163018e9ad06d4c143e838888600a60008d73ffffffffffffffffffffffffffffffffffffffff1673ffffffffffffffffffffffffffffffffffffffff16815260200190815260200160002086815481106123b1577f4e487b7100000000000000000000000000000000000000000000000000000000600052603260045260246000fd5b90600052602060002090600702016003016040516123d2949392919061453d565b60405180910390a1505b80806123e790614b71565b915050611f59565b5050612431565b6040517f08c379a0000000000000000000000000000000000000000000000000000000008152600401612428906147c7565b60405180910390fd5b5b5050505050565b60008033905084600660008373ffffffffffffffffffffffffffffffffffffffff1673ffffffffffffffffffffffffffffffffffffffff1681526020019081526020016000205410156124c1576040517f08c379a00000000000000000000000000000000000000000000000000000000081526004016124b890614707565b60405180910390fd5b60098484905010612507576040517f08c379a00000000000000000000000000000000000000000000000000000000081526004016124fe906147a7565b60405180910390fd5b84600660008373ffffffffffffffffffffffffffffffffffffffff1673ffffffffffffffffffffffffffffffffffffffff16815260200190815260200160002060008282546125569190614a6b565b9250508190555084600660008873ffffffffffffffffffffffffffffffffffffffff1673ffffffffffffffffffffffffffffffffffffffff16815260200190815260200160002060008282546125ac9190614a15565b925050819055507f69ca02dd4edd7bf0a4abb9ed3b7af3f14778db5d61921c7dc7cd545266326de286866040516125e4929190614514565b60405180910390a16125f46132f6565b60008160a0019073ffffffffffffffffffffffffffffffffffffffff16908173ffffffffffffffffffffffffffffffffffffffff1681525050600081604001901515908115158152505060018160000190600481111561267d577f4e487b7100000000000000000000000000000000000000000000000000000000600052602160045260246000fd5b908160048111156126b7577f4e487b7100000000000000000000000000000000000000000000000000000000600052602160045260246000fd5b8152505086816080019073ffffffffffffffffffffffffffffffffffffffff16908173ffffffffffffffffffffffffffffffffffffffff1681525050858160c001818152505084848080601f016020809104026020016040519081016040528093929190818152602001838380828437600081840152601f19601f82011690508083019250505050505050816060018190525060056000815461275990614b71565b919050819055816020018181525050600a60008373ffffffffffffffffffffffffffffffffffffffff1673ffffffffffffffffffffffffffffffffffffffff16815260200190815260200160002081908060018154018082558091505060019003906000526020600020906007020160009091909190915060008201518160000160006101000a81548160ff02191690836004811115612822577f4e487b7100000000000000000000000000000000000000000000000000000000600052602160045260246000fd5b02179055506020820151816001015560408201518160020160006101000a81548160ff021916908315150217905550606082015181600301908051906020019061286d929190613399565b5060808201518160040160006101000a81548173ffffffffffffffffffffffffffffffffffffffff021916908373ffffffffffffffffffffffffffffffffffffffff16021790555060a08201518160050160006101000a81548173ffffffffffffffffffffffffffffffffffffffff021916908373ffffffffffffffffffffffffffffffffffffffff16021790555060c082015181600601555050600060075467ffffffffffffffff81111561294c577f4e487b7100000000000000000000000000000000000000000000000000000000600052604160045260246000fd5b60405190808252806020026020018201604052801561297a5781602001602082028036833780820191505090505b50905060005b6007548110156129ea5760018282815181106129c5577f4e487b7100000000000000000000000000000000000000000000000000000000600052603260045260246000fd5b60200260200101901515908115158152505080806129e290614b71565b915050612980565b506001151581600081518110612a29577f4e487b7100000000000000000000000000000000000000000000000000000000600052603260045260246000fd5b60200260200101511515149350505050949350505050565b60156020528060005260406000206000915090508060000154908060010154908060020154905083565b60095481565b600080600660008473ffffffffffffffffffffffffffffffffffffffff1673ffffffffffffffffffffffffffffffffffffffff16815260200190815260200160002054905080915050919050565b612ac76131ac565b612ad1600061322a565b565b60035481565b60055481565b60008060009054906101000a900473ffffffffffffffffffffffffffffffffffffffff16905090565b600080612b1361341f565b438160400181815250504281600001818152505084816020019073ffffffffffffffffffffffffffffffffffffffff16908173ffffffffffffffffffffffffffffffffffffffff168152505060128190806001815401808255809150506001900390600052602060002090600302016000909190919091506000820151816000015560208201518160010160006101000a81548173ffffffffffffffffffffffffffffffffffffffff021916908373ffffffffffffffffffffffffffffffffffffffff160217905550604082015181600201555050600060075467ffffffffffffffff811115612c2c577f4e487b7100000000000000000000000000000000000000000000000000000000600052604160045260246000fd5b604051908082528060200260200182016040528015612c5a5781602001602082028036833780820191505090505b50905060005b600754811015612cca576001828281518110612ca5577f4e487b7100000000000000000000000000000000000000000000000000000000600052603260045260246000fd5b6020026020010190151590811515815250508080612cc290614b71565b915050612c60565b506001151581600081518110612d09577f4e487b7100000000000000000000000000000000000000000000000000000000600052603260045260246000fd5b6020026020010151151514859350935050509250929050565b60008060009050600180541480612d3b57506001600354145b15612d495760019050612d4e565b600090505b8091505090565b600b6020528060005260406000206000915090505481565b601160009054906101000a900460ff1681565b60146020528060005260406000206000915090505481565b60128181548110612da857600080fd5b90600052602060002090600302016000915090508060000154908060010160009054906101000a900473ffffffffffffffffffffffffffffffffffffffff16908060020154905083565b600a6020528160005260406000208181548110612e0e57600080fd5b9060005260206000209060070201600091509150508060000160009054906101000a900460ff16908060010154908060020160009054906101000a900460ff1690806003018054612e5e90614b3f565b80601f0160208091040260200160405190810160405280929190818152602001828054612e8a90614b3f565b8015612ed75780601f10612eac57610100808354040283529160200191612ed7565b820191906000526020600020905b815481529060010190602001808311612eba57829003601f168201915b5050505050908060040160009054906101000a900473ffffffffffffffffffffffffffffffffffffffff16908060050160009054906101000a900473ffffffffffffffffffffffffffffffffffffffff16908060060154905087565b6000806000905060005b6005811015612fed578373ffffffffffffffffffffffffffffffffffffffff16600c8260058110612f97577f4e487b7100000000000000000000000000000000000000000000000000000000600052603260045260246000fd5b0160009054906101000a900473ffffffffffffffffffffffffffffffffffffffff1673ffffffffffffffffffffffffffffffffffffffff161415612fda57600191505b8080612fe590614b71565b915050612f3d565b5080915050919050565b60606012805480602002602001604051908101604052809291908181526020016000905b828210156130b75783829060005260206000209060030201604051806060016040529081600082015481526020016001820160009054906101000a900473ffffffffffffffffffffffffffffffffffffffff1673ffffffffffffffffffffffffffffffffffffffff1673ffffffffffffffffffffffffffffffffffffffff1681526020016002820154815250508152602001906001019061301b565b50505050905090565b60015481565b60075481565b600860009054906101000a900473ffffffffffffffffffffffffffffffffffffffff1681565b600c816005811061310257600080fd5b016000915054906101000a900473ffffffffffffffffffffffffffffffffffffffff1681565b6131306131ac565b600073ffffffffffffffffffffffffffffffffffffffff168173ffffffffffffffffffffffffffffffffffffffff1614156131a0576040517f08c379a000000000000000000000000000000000000000000000000000000000815260040161319790614687565b60405180910390fd5b6131a98161322a565b50565b6131b46132ee565b73ffffffffffffffffffffffffffffffffffffffff166131d2612adf565b73ffffffffffffffffffffffffffffffffffffffff1614613228576040517f08c379a000000000000000000000000000000000000000000000000000000000815260040161321f90614807565b60405180910390fd5b565b60008060009054906101000a900473ffffffffffffffffffffffffffffffffffffffff169050816000806101000a81548173ffffffffffffffffffffffffffffffffffffffff021916908373ffffffffffffffffffffffffffffffffffffffff1602179055508173ffffffffffffffffffffffffffffffffffffffff168173ffffffffffffffffffffffffffffffffffffffff167f8be0079c531659141344cd1fd0a4f28419497f9722a3daafe3b4186f6b6457e060405160405180910390a35050565b600033905090565b6040518060e001604052806000600481111561333b577f4e487b7100000000000000000000000000000000000000000000000000000000600052602160045260246000fd5b81526020016000815260200160001515815260200160608152602001600073ffffffffffffffffffffffffffffffffffffffff168152602001600073ffffffffffffffffffffffffffffffffffffffff168152602001600081525090565b8280546133a590614b3f565b90600052602060002090601f0160209004810192826133c7576000855561340e565b82601f106133e057805160ff191683800117855561340e565b8280016001018555821561340e579182015b8281111561340d5782518255916020019190600101906133f2565b5b50905061341b9190613456565b5090565b604051806060016040528060008152602001600073ffffffffffffffffffffffffffffffffffffffff168152602001600081525090565b5b8082111561346f576000816000905550600101613457565b5090565b60008135905061348281614c9b565b92915050565b60008135905061349781614cb2565b92915050565b6000813590506134ac81614cc9565b92915050565b60008083601f8401126134c457600080fd5b8235905067ffffffffffffffff8111156134dd57600080fd5b6020830191508360018202830111156134f557600080fd5b9250929050565b60006060828403121561350e57600080fd5b6135186060614930565b905060006135288482850161355c565b600083015250602061353c8482850161355c565b60208301525060406135508482850161355c565b60408301525092915050565b60008135905061356b81614cd9565b92915050565b60006020828403121561358357600080fd5b600061359184828501613473565b91505092915050565b600080604083850312156135ad57600080fd5b60006135bb85828601613473565b92505060206135cc85828601613488565b9150509250929050565b600080604083850312156135e957600080fd5b60006135f785828601613473565b92505060206136088582860161355c565b9150509250929050565b6000806000806060858703121561362857600080fd5b600061363687828801613473565b94505060206136478782880161355c565b935050604085013567ffffffffffffffff81111561366457600080fd5b613670878288016134b2565b925092505092959194509250565b600080600060a0848603121561369357600080fd5b60006136a186828701613473565b93505060206136b28682870161355c565b92505060406136c3868287016134fc565b9150509250925092565b600080600080608085870312156136e357600080fd5b60006136f187828801613473565b94505060206137028782880161355c565b93505060406137138782880161355c565b92505060606137248782880161349d565b91505092959194509250565b60006020828403121561374257600080fd5b60006137508482850161355c565b91505092915050565b600061376583836143fd565b60608301905092915050565b600061377d838361443f565b905092915050565b61378e81614a9f565b82525050565b61379d81614a9f565b82525050565b60006137ae82614996565b6137b881856149d1565b93506137c383614961565b8060005b838110156137f45781516137db8882613759565b97506137e6836149b7565b9250506001810190506137c7565b5085935050505092915050565b600061380c826149a1565b61381681856149e2565b93508360208202850161382885614971565b8060005b8581101561386457848403895281516138458582613771565b9450613850836149c4565b925060208a0199505060018101905061382c565b50829750879550505050505092915050565b61387f81614ab1565b82525050565b61388e81614ab1565b82525050565b61389d81614afa565b82525050565b6138ac81614afa565b82525050565b60006138bd826149ac565b6138c781856149f3565b93506138d7818560208601614b0c565b6138e081614c76565b840191505092915050565b60006138f6826149ac565b6139008185614a04565b9350613910818560208601614b0c565b61391981614c76565b840191505092915050565b6000815461393181614b3f565b61393b8186614a04565b9450600182166000811461395657600181146139685761399b565b60ff198316865260208601935061399b565b61397185614981565b60005b8381101561399357815481890152600182019150602081019050613974565b808801955050505b50505092915050565b60006139b1602683614a04565b91507f4f776e61626c653a206e6577206f776e657220697320746865207a65726f206160008301527f64647265737300000000000000000000000000000000000000000000000000006020830152604082019050919050565b6000613a17604283614a04565b91507f47617320436f6e7472616374202d20557064617465205061796d656e7420667560008301527f6e6374696f6e202d204944206d7573742062652067726561746572207468616e60208301527f20300000000000000000000000000000000000000000000000000000000000006040830152606082019050919050565b6000613aa461010883614a04565b91507f47617320436f6e747261637420436865636b496657686974654c69737465642060008301527f6d6f646966696572203a207265766572742068617070656e656420626563617560208301527f73652074686520757365722773207469657220697320696e636f72726563742c60408301527f2069742063616e6e6f74206265206f766572203420617320746865206f6e6c7960608301527f20746965722077652068617665206172653a20312c20322c20333b207468657260808301527f666f7265203420697320616e20696e76616c6964207469657220666f7220746860a08301527f6520776869746c697374206f66207468697320636f6e74726163742e206d616b60c08301527f65207375726520776869746c697374207469657273207765726520736574206360e08301527f6f72726563746c7900000000000000000000000000000000000000000000000061010083015261012082019050919050565b6000613c16605383614a04565b91507f47617320436f6e7472616374202d20616464546f57686974656c69737420667560008301527f6e6374696f6e202d202074696572206c6576656c2073686f756c64206e6f742060208301527f62652067726561746572207468616e20323535000000000000000000000000006040830152606082019050919050565b6000613ca2604283614a04565b91507f47617320436f6e7472616374202d205472616e736665722066756e6374696f6e60008301527f202d2053656e6465722068617320696e73756666696369656e742042616c616e60208301527f63650000000000000000000000000000000000000000000000000000000000006040830152606082019050919050565b6000613d2e605e83614a04565b91507f47617320436f6e747261637420436865636b496657686974654c69737465642060008301527f6d6f646966696572203a207265766572742068617070656e656420626563617560208301527f7365207468652075736572206973206e6f742077686974656c697374656400006040830152606082019050919050565b6000613dba602583614a04565b91507f436f6e7472616374206861636b65642c20696d706f7369626c652c2063616c6c60008301527f2068656c700000000000000000000000000000000000000000000000000000006020830152604082019050919050565b6000613e20605083614a04565b91507f47617320436f6e7472616374202d2077686974655472616e736665727320667560008301527f6e6374696f6e202d20616d6f756e7420746f2073656e64206861766520746f2060208301527f626520626967676572207468616e2033000000000000000000000000000000006040830152606082019050919050565b6000613eac604683614a04565b91507f47617320436f6e7472616374202d20557064617465205061796d656e7420667560008301527f6e6374696f6e202d20416d6f756e74206d75737420626520677265617465722060208301527f7468616e203000000000000000000000000000000000000000000000000000006040830152606082019050919050565b6000613f38606983614a04565b91507f47617320436f6e7472616374202d205472616e736665722066756e6374696f6e60008301527f202d202054686520726563697069656e74206e616d6520697320746f6f206c6f60208301527f6e672c2074686572652069732061206d6178206c656e677468206f662038206360408301527f68617261637465727300000000000000000000000000000000000000000000006060830152608082019050919050565b6000613fea60d483614a04565b91507f4572726f7220696e2047617320636f6e7472616374202d206f6e6c7941646d6960008301527f6e4f724f776e6572206d6f646966696572203a2072657665727420686170706560208301527f6e6564206265636175736520746865206f726967696e61746f72206f6620746860408301527f65207472616e73616374696f6e20776173206e6f74207468652061646d696e2c60608301527f20616e6420667572746865726d6f7265206865207761736e277420746865206f60808301527f776e6572206f662074686520636f6e74726163742c20736f2068652063616e6e60a08301527f6f742072756e20746869732066756e6374696f6e00000000000000000000000060c083015260e082019050919050565b600061410e605983614a04565b91507f47617320436f6e7472616374202d20557064617465205061796d656e7420667560008301527f6e6374696f6e202d2041646d696e6973747261746f72206d757374206861766560208301527f20612076616c6964206e6f6e207a65726f2061646472657373000000000000006040830152606082019050919050565b600061419a602083614a04565b91507f4f776e61626c653a2063616c6c6572206973206e6f7420746865206f776e65726000830152602082019050919050565b60006141da603083614a04565b91507f47617320436f6e7472616374204f6e6c792041646d696e20436865636b2d202060008301527f43616c6c6572206e6f742061646d696e000000000000000000000000000000006020830152604082019050919050565b6000614240607783614a04565b91507f47617320436f6e747261637420436865636b496657686974654c69737465642060008301527f6d6f646966696572203a207265766572742068617070656e656420626563617560208301527f736520746865206f726967696e61746f72206f6620746865207472616e73616360408301527f74696f6e20776173206e6f74207468652073656e6465720000000000000000006060830152608082019050919050565b60006142f2604883614a04565b91507f47617320436f6e7472616374202d2077686974655472616e736665727320667560008301527f6e6374696f6e202d2053656e6465722068617320696e73756666696369656e7460208301527f2042616c616e63650000000000000000000000000000000000000000000000006040830152606082019050919050565b600061437e604d83614a04565b91507f47617320436f6e7472616374202d206765745061796d656e74732066756e637460008301527f696f6e202d2055736572206d757374206861766520612076616c6964206e6f6e60208301527f207a65726f2061646472657373000000000000000000000000000000000000006040830152606082019050919050565b60608201600082015161441360008501826144db565b5060208201516144266020850182613785565b50604082015161443960408501826144db565b50505050565b600060e0830160008301516144576000860182613894565b50602083015161446a60208601826144db565b50604083015161447d6040860182613876565b506060830151848203606086015261449582826138b2565b91505060808301516144aa6080860182613785565b5060a08301516144bd60a0860182613785565b5060c08301516144d060c08601826144db565b508091505092915050565b6144e481614af0565b82525050565b6144f381614af0565b82525050565b600060208201905061450e6000830184613794565b92915050565b60006040820190506145296000830185613794565b61453660208301846144ea565b9392505050565b60006080820190506145526000830187613794565b61455f60208301866144ea565b61456c60408301856144ea565b818103606083015261457e8184613924565b905095945050505050565b600060208201905081810360008301526145a381846137a3565b905092915050565b600060208201905081810360008301526145c58184613801565b905092915050565b60006020820190506145e26000830184613885565b92915050565b60006040820190506145fd6000830185613885565b61460a6020830184613885565b9392505050565b600060e082019050614626600083018a6138a3565b61463360208301896144ea565b6146406040830188613885565b818103606083015261465281876138eb565b90506146616080830186613794565b61466e60a0830185613794565b61467b60c08301846144ea565b98975050505050505050565b600060208201905081810360008301526146a0816139a4565b9050919050565b600060208201905081810360008301526146c081613a0a565b9050919050565b600060208201905081810360008301526146e081613a96565b9050919050565b6000602082019050818103600083015261470081613c09565b9050919050565b6000602082019050818103600083015261472081613c95565b9050919050565b6000602082019050818103600083015261474081613d21565b9050919050565b6000602082019050818103600083015261476081613dad565b9050919050565b6000602082019050818103600083015261478081613e13565b9050919050565b600060208201905081810360008301526147a081613e9f565b9050919050565b600060208201905081810360008301526147c081613f2b565b9050919050565b600060208201905081810360008301526147e081613fdd565b9050919050565b6000602082019050818103600083015261480081614101565b9050919050565b600060208201905081810360008301526148208161418d565b9050919050565b60006020820190508181036000830152614840816141cd565b9050919050565b6000602082019050818103600083015261486081614233565b9050919050565b60006020820190508181036000830152614880816142e5565b9050919050565b600060208201905081810360008301526148a081614371565b9050919050565b60006020820190506148bc60008301846144ea565b92915050565b60006060820190506148d760008301866144ea565b6148e46020830185613794565b6148f160408301846144ea565b949350505050565b600060608201905061490e60008301866144ea565b61491b60208301856144ea565b61492860408301846144ea565b949350505050565b6000604051905081810181811067ffffffffffffffff8211171561495757614956614c47565b5b8060405250919050565b6000819050602082019050919050565b6000819050602082019050919050565b60008190508160005260206000209050919050565b600081519050919050565b600081519050919050565b600081519050919050565b6000602082019050919050565b6000602082019050919050565b600082825260208201905092915050565b600082825260208201905092915050565b600082825260208201905092915050565b600082825260208201905092915050565b6000614a2082614af0565b9150614a2b83614af0565b9250827fffffffffffffffffffffffffffffffffffffffffffffffffffffffffffffffff03821115614a6057614a5f614bba565b5b828201905092915050565b6000614a7682614af0565b9150614a8183614af0565b925082821015614a9457614a93614bba565b5b828203905092915050565b6000614aaa82614ad0565b9050919050565b60008115159050919050565b6000819050614acb82614c87565b919050565b600073ffffffffffffffffffffffffffffffffffffffff82169050919050565b6000819050919050565b6000614b0582614abd565b9050919050565b60005b83811015614b2a578082015181840152602081019050614b0f565b83811115614b39576000848401525b50505050565b60006002820490506001821680614b5757607f821691505b60208210811415614b6b57614b6a614c18565b5b50919050565b6000614b7c82614af0565b91507fffffffffffffffffffffffffffffffffffffffffffffffffffffffffffffffff821415614baf57614bae614bba565b5b600182019050919050565b7f4e487b7100000000000000000000000000000000000000000000000000000000600052601160045260246000fd5b7f4e487b7100000000000000000000000000000000000000000000000000000000600052602160045260246000fd5b7f4e487b7100000000000000000000000000000000000000000000000000000000600052602260045260246000fd5b7f4e487b7100000000000000000000000000000000000000000000000000000000600052604160045260246000fd5b6000601f19601f8301169050919050565b60058110614c9857614c97614be9565b5b50565b614ca481614a9f565b8114614caf57600080fd5b50565b614cbb81614ab1565b8114614cc657600080fd5b50565b60058110614cd657600080fd5b50565b614ce281614af0565b8114614ced57600080fd5b5056fea264697066735822122012c80b0cbc375395ef73789725fe0afd7b3f32f97458e3dfc947623b8847e96564736f6c63430008000033",
  "linkReferences": {},
  "deployedLinkReferences": {}
}