{
  "contracts/Gas.sol": {
    "Constants": {
      "abi": [
        {
          "inputs": [],
          "name": "basicFlag",
          "outputs": [
            {
              "internalType": "uint256",
              "name": "",
              "type": "uint256"
            }
          ],
          "stateMutability": "view",
          "type": "function"
        },
        {
          "inputs": [],
          "name": "dividendFlag",
          "outputs": [
            {
              "internalType": "uint256",
              "name": "",
              "type": "uint256"
            }
          ],
          "stateMutability": "view",
          "type": "function"
        },
        {
          "inputs": [],
          "name": "tradeFlag",
          "outputs": [
            {
              "internalType": "uint256",
              "name": "",
              "type": "uint256"
            }
          ],
          "stateMutability": "view",
          "type": "function"
        }
      ],
      "evm": {
        "bytecode": {
          "linkReferences": {},
          "object": "608060405260016000556000600155600160025534801561001f57600080fd5b506101078061002f6000396000f3fe6080604052348015600f57600080fd5b5060043610603c5760003560e01c80632c01c922146041578063745b07c814605b578063c43982cc146075575b600080fd5b6047608f565b6040516052919060ae565b60405180910390f35b60616095565b604051606c919060ae565b60405180910390f35b607b609b565b6040516086919060ae565b60405180910390f35b60015481565b60025481565b60005481565b60a88160c7565b82525050565b600060208201905060c1600083018460a1565b92915050565b600081905091905056fea264697066735822122069d48c56d3209d8bdb30eb4867ddb97ba80d62e1d9b18fc7d6d7fa521771a20664736f6c63430008000033",
          "opcodes": "PUSH1 0x80 PUSH1 0x40 MSTORE PUSH1 0x1 PUSH1 0x0 SSTORE PUSH1 0x0 PUSH1 0x1 SSTORE PUSH1 0x1 PUSH1 0x2 SSTORE CALLVALUE DUP1 ISZERO PUSH2 0x1F JUMPI PUSH1 0x0 DUP1 REVERT JUMPDEST POP PUSH2 0x107 DUP1 PUSH2 0x2F PUSH1 0x0 CODECOPY PUSH1 0x0 RETURN INVALID PUSH1 0x80 PUSH1 0x40 MSTORE CALLVALUE DUP1 ISZERO PUSH1 0xF JUMPI PUSH1 0x0 DUP1 REVERT JUMPDEST POP PUSH1 0x4 CALLDATASIZE LT PUSH1 0x3C JUMPI PUSH1 0x0 CALLDATALOAD PUSH1 0xE0 SHR DUP1 PUSH4 0x2C01C922 EQ PUSH1 0x41 JUMPI DUP1 PUSH4 0x745B07C8 EQ PUSH1 0x5B JUMPI DUP1 PUSH4 0xC43982CC EQ PUSH1 0x75 JUMPI JUMPDEST PUSH1 0x0 DUP1 REVERT JUMPDEST PUSH1 0x47 PUSH1 0x8F JUMP JUMPDEST PUSH1 0x40 MLOAD PUSH1 0x52 SWAP2 SWAP1 PUSH1 0xAE JUMP JUMPDEST PUSH1 0x40 MLOAD DUP1 SWAP2 SUB SWAP1 RETURN JUMPDEST PUSH1 0x61 PUSH1 0x95 JUMP JUMPDEST PUSH1 0x40 MLOAD PUSH1 0x6C SWAP2 SWAP1 PUSH1 0xAE JUMP JUMPDEST PUSH1 0x40 MLOAD DUP1 SWAP2 SUB SWAP1 RETURN JUMPDEST PUSH1 0x7B PUSH1 0x9B JUMP JUMPDEST PUSH1 0x40 MLOAD PUSH1 0x86 SWAP2 SWAP1 PUSH1 0xAE JUMP JUMPDEST PUSH1 0x40 MLOAD DUP1 SWAP2 SUB SWAP1 RETURN JUMPDEST PUSH1 0x1 SLOAD DUP2 JUMP JUMPDEST PUSH1 0x2 SLOAD DUP2 JUMP JUMPDEST PUSH1 0x0 SLOAD DUP2 JUMP JUMPDEST PUSH1 0xA8 DUP2 PUSH1 0xC7 JUMP JUMPDEST DUP3 MSTORE POP POP JUMP JUMPDEST PUSH1 0x0 PUSH1 0x20 DUP3 ADD SWAP1 POP PUSH1 0xC1 PUSH1 0x0 DUP4 ADD DUP5 PUSH1 0xA1 JUMP JUMPDEST SWAP3 SWAP2 POP POP JUMP JUMPDEST PUSH1 0x0 DUP2 SWAP1 POP SWAP2 SWAP1 POP JUMP INVALID LOG2 PUSH5 0x6970667358 0x22 SLT KECCAK256 PUSH10 0xD48C56D3209D8BDB30EB 0x48 PUSH8 0xDDB97BA80D62E1D9 0xB1 DUP16 0xC7 0xD6 0xD7 STATICCALL MSTORE OR PUSH18 0xA20664736F6C634300080000330000000000 "
        },
        "methodIdentifiers": {
          "basicFlag()": "2c01c922",
          "dividendFlag()": "745b07c8",
          "tradeFlag()": "c43982cc"
        }
      }
    }
  }
}